:100000000A128A11812B00308A000408840A8207B0
:10001000003436342D34443449344734493454346C
:100020002034503441345334533457344F345234E1
:100030004434003450344C34453441345334453422
:10004000203445344E34543445345234003453341F
:100050005534433443344534533453342134003419
:0E0060004534523452344F345234213400347B
:10053800313432343334343435343634831203139B
:1005480089100914851605160800831203138914E7
:100558000910851605160800831203138914091457
:1005680085120516080083120313891409148516C9
:10057800051208008312031306150030F30000303B
:10058800F2001F30F1004030F0000A128A11B02347
:100598000A128A11831203130611080001300A1285
:1005A8008A11E6220A128A110030F3000030F200A4
:1005B8000030F1003230F0000A128A11B0230A121A
:1005C8008A110800F80083120313071078088800BE
:1005D8000030F3000030F2000030F1003230F0005B
:1005E8000A128A11B0230A128A110A128A113523B3
:1005F8000A128A110800F8008312031307147808F6
:1006080088000030F3000030F2000030F100323092
:10061800F0000A128A11B0230A128A110A128A11EA
:1006280035230A128A110800FA0010307A020318DA
:100638001E2B1F2B272B7A08803E0A128A11E622CE
:100648000A128A11342B7A08EC3EF9007908FA006C
:100658007A08C03E0A128A11E6220A128A11342B3D
:1006680008008312031387140030F3000030F200EF
:100678000030F1003230F0000A128A11B0230A1259
:100688008A118312031387100030F3000030F20040
:100698000030F1003230F0000A128A11B0230A1239
:1006A8008A110800FB000310003003180130FA001B
:1006B8006E2B7B0884000A128A1103200A128A1101
:1006C8000A128A11FF220A128A110130F9007908E8
:1006D800FB076E2B7B08031D722B802B7B08840085
:1006E8000A128A1103200A128A110038031D7D2B71
:1006F8007E2B5D2B802B802B0800FC01A001A10123
:10070800A201A301A401A5010A128A119C220A12BE
:100718008A11A6000A128A119D220A128A11A700BC
:100728000A128A119E220A128A11A8000A128A1134
:100738009F220A128A11A9000A128A11A0220A12FB
:100748008A11AA000A128A11A1220A128A11AB0080
:1007580083010A128A110C2F730872047104700441
:10076800031DB72BB82BBA2BDF2BDF2B0130F4007E
:100778000030F5000030F6000030F7007408F00291
:100788007508031C750FC92BCA2BF1027608031CC8
:10079800760FCF2BD02BF2027708031C770FD52BBF
:1007A800D62BF3027308720471047004031DDD2B49
:1007B800DE2BBA2BDF2B080083120313061500303B
:1007C800F3000030F2001F30F1004030F0000A1250
:1007D8008A11B0230A128A118312031306110030FA
:1007E800F3000030F2003230F100C830F0000A1295
:1007F8008A11B0230A128A118312031306150030D6
:10080800F3000030F2001F30F1004030F0000A120F
:100818008A11B0230A128A118312031306110800E1
:10082800831203130518192C1A2C442C1C2C1C2C6D
:10083800051C1F2C202C1C2C212CFC08031D252CEE
:10084800262C2B2C0A128A11D2220A128A117C0811
:100858000A128A1118230A128A112A300A128A11D6
:10086800FF220A128A113130FB007C08203E8400E6
:100878007B08831380000130FB007B08FC07D12C28
:100888008518472C482C722C4A2C4A2C851C4D2C38
:100898004E2C4A2C4F2CFC08031D532C542C592C3D
:1008A8000A128A11D2220A128A117C080A128A11A3
:1008B80018230A128A112A300A128A11FF220A12F0
:1008C8008A113230FB007C08203E84007B088313A9
:1008D80080000130FB007B08FC07D12C0519752C22
:1008E800762CA02C782C782C051D7B2C7C2C782C35
:1008F8007D2CFC08031D812C822C872C0A128A115E
:10090800D2220A128A117C080A128A1118230A12A2
:100918008A112A300A128A11FF220A128A113330E8
:10092800FB007C08203E84007B0883138000013094
:10093800FB007B08FC07D12C8519A32CA42CD12CF7
:10094800A62CA62C851DA92CAA2CA62CAB2CFC0801
:10095800031DAF2CB02CB52C0A128A11D2220A1210
:100968008A117C080A128A1118230A128A112A305D
:100978000A128A11FF220A128A114130FB007C08F0
:10098800203E84007B08831380000130FB007B0835
:10099800FC07D12CD12CD12CD12C080083120313A5
:1009A8000518D72CD82C022DDA2CDA2C051CDD2CB6
:1009B800DE2CDA2CDF2CFC08031DE32CE42CE92CBC
:1009C8000A128A11D2220A128A117C080A128A1182
:1009D80018230A128A112A300A128A11FF220A12CF
:1009E8008A113430FB007C08203E84007B08831386
:1009F80080000130FB007B08FC078F2D8518052D32
:100A0800062D302D082D082D851C0B2D0C2D082D9D
:100A18000D2DFC08031D112D122D172D0A128A11F8
:100A2800D2220A128A117C080A128A1118230A1281
:100A38008A112A300A128A11FF220A128A113530C5
:100A4800FB007C08203E84007B0883138000013073
:100A5800FB007B08FC078F2D0519332D342D5E2DE7
:100A6800362D362D051D392D3A2D362D3B2DFC08FA
:100A7800031D3F2D402D452D0A128A11D2220A123C
:100A88008A117C080A128A1118230A128A112A303C
:100A98000A128A11FF220A128A113630FB007C08DA
:100AA800203E84007B08831380000130FB007B0814
:100AB800FC078F2D8519612D622D8F2D642D642DD6
:100AC800851D672D682D642D692DFC08031D6D2D6E
:100AD8006E2D732D0A128A11D2220A128A117C08ED
:100AE8000A128A1118230A128A112A300A128A1144
:100AF800FF220A128A114230FB007C08203E840043
:100B08007B08831380000130FB007B08FC078F2DD6
:100B18008F2D8F2D8F2D0800831203130518952D07
:100B2800962DC02D982D982D051C9B2D9C2D982D0C
:100B38009D2DFC08031DA12DA22DA72D0A128A1197
:100B4800D2220A128A117C080A128A1118230A1260
:100B58008A112A300A128A11FF220A128A113730A2
:100B6800FB007C08203E84007B0883138000013052
:100B7800FB007B08FC074D2E8518C32DC42DEE2DD8
:100B8800C62DC62D851CC92DCA2DC62DCB2DFC08FA
:100B9800031DCF2DD02DD52D0A128A11D2220A126B
:100BA8008A117C080A128A1118230A128A112A301B
:100BB8000A128A11FF220A128A113830FB007C08B7
:100BC800203E84007B08831380000130FB007B08F3
:100BD800FC074D2E0519F12DF22D1C2EF42DF42DA8
:100BE800051DF72DF82DF42DF92DFC08031DFD2DFD
:100BF800FE2D032E0A128A11D2220A128A117C08AB
:100C08000A128A1118230A128A112A300A128A1122
:100C1800FF220A128A113930FB007C08203E84002A
:100C28007B08831380000130FB007B08FC074D2EF6
:100C380085191F2E202E4D2E222E222E851D252E63
:100C4800262E222E272EFC08031D2B2E2C2E312E6D
:100C58000A128A11D2220A128A117C080A128A11EF
:100C680018230A128A112A300A128A11FF220A123C
:100C78008A114330FB007C08203E84007B088313E4
:100C880080000130FB007B08FC074D2E4D2E4D2EB9
:100C98004D2E0800831203130518532E542E7E2E52
:100CA800562E562E051C592E5A2E562E5B2EFC08F3
:100CB800031D5F2E602E652E0A128A11D2220A1297
:100CC8008A117C080A128A1118230A128A112A30FA
:100CD8000A128A11FF220A128A112A30FB007C08A4
:100CE800203E84007B08831380000130FB007B08D2
:100CF800FC070B2F8518812E822EAC2E842E842E75
:100D0800851C872E882E842E892EFC08031D8D2E87
:100D18008E2E932E0A128A11D2220A128A117C0868
:100D28000A128A1118230A128A112A300A128A1101
:100D3800FF220A128A113030FB007C08203E840012
:100D48007B08831380000130FB007B08FC070B2F16
:100D58000519AF2EB02EDA2EB22EB22E051DB52EE5
:100D6800B62EB22EB72EFC08031DBB2EBC2EC12EEC
:100D78000A128A11D2220A128A117C080A128A11CE
:100D880018230A128A112A300A128A11FF220A121B
:100D98008A112330FB007C08203E84007B088313E3
:100DA80080000130FB007B08FC070B2F8519DD2E26
:100DB800DE2E0B2FE02EE02E851DE32EE42EE02EF6
:100DC800E52EFC08031DE92EEA2EEF2E0A128A11E1
:100DD800D2220A128A117C080A128A1118230A12CE
:100DE8008A112A300A128A11FF220A128A11443003
:100DF800FB007C08203E84007B08831380000130C0
:100E0800FB007B08FC070B2F0B2F0B2F0B2F080069
:100E18000630831603139F00CF30850086018801B2
:100E2800F030870089018312031387018801861037
:100E380006110711871109300A128A11E6220A12CF
:100E48008A1102300A128A11E6220A128A11063021
:100E58000A128A11E6220A128A110C300A128A1121
:100E6800E6220A128A1138300A128A11E6220A1278
:100E78008A110A128A11D2220A128A110030F3004A
:100E88000030F2000330F100E830F0000A128A1155
:100E9800B0230A128A1100300A128A1118230A1282
:100EA8008A1112300A128A1156230A128A11143032
:100EB8000A128A1118230A128A1101300A128A1199
:100EC80056230A128A11682F0A128A11A2220A12BC
:100ED8008A110A128A1114240A128A110A128A1112
:100EE800A9220A128A110A128A11D2240A128A1114
:100EF8000A128A11B0220A128A110A128A1190253E
:100F08000A128A110A128A11B7220A128A110A12BF
:100F18008A114E260A128A117C08063A031D952F5B
:100F2800962F682F0310003003180130FC0083123D
:100F3800031320082606031DA22FA32FDE2F210846
:100F48002706031DA82FA92FDE2F22082806031D18
:100F5800AE2FAF2FDE2F23082906031DB42FB52F80
:100F6800DE2F24082A06031DBA2FBB2FDE2F2508E3
:100F78002B06031DC02FC12FDE2F0A128A11D22281
:100F88000A128A1100300A128A1118230A128A11C9
:100F98001F300A128A1156230A128A118312031368
:100FA800071586140A128A11BE220A128A11DC2F2A
:100FB800DC2F682F0A128A11D2220A128A110030F5
:100FC8000A128A1118230A128A1128300A128A1161
:100FD80056230A128A118312031387150A128A11DB
:100FE800E0230A128A11F82FF82F682F682F682F2C
:080FF800682F0A128A1100287B
:02400E00323F3F
:00000001FF
