:100000000A128A11852B00308A000408840A8207AC
:10001000003436342D34443449344734493454346C
:100020002034503441345334533457344F345234E1
:100030004434003450344C34453441345334453422
:10004000203445344E34543445345234003453341F
:100050005534433443344534533453342134003419
:0E0060004534523452344F345234213400347B
:10054800313432343334343435343634831203138B
:1005580089100914851605160800831203138914D7
:100568000910851605160800831203138914091447
:1005780085120516080083120313891409148516B9
:10058800051208008312031306150030F30000302B
:10059800F2001F30F1004030F0000A128A11B42333
:1005A8000A128A11831203130611080001300A1275
:1005B8008A11EE220A128A110030F3000030F2008C
:1005C8000030F1003230F0000A128A11B4230A1206
:1005D8008A110800F80083120313071078088800AE
:1005E8000030F3000030F2000030F1003230F0004B
:1005F8000A128A11B4230A128A110A128A113D2397
:100608000A128A110800F8008312031307147808E5
:1006180088000030F3000030F2000030F100323082
:10062800F0000A128A11B4230A128A110A128A11D6
:100638003D230A128A110800FA0010307A020318C2
:10064800262B272B2F2B7A08803E0A128A11EE229E
:100658000A128A113C2B7A08EC3EF9007908FA0054
:100668007A08C03E0A128A11EE220A128A113C2B1D
:1006780008008312031387140030F3000030F200DF
:100688000030F1003230F0000A128A11B4230A1245
:100698008A118312031387100030F3000030F20030
:1006A8000030F1003230F0000A128A11B4230A1225
:1006B8008A110800FB00FA01722B7B0884000A12D9
:1006C8008A1103200A128A110A128A1107230A12B0
:1006D8008A110130F9007908FB07722B7B08031D8A
:1006E800762B842B7B0884000A128A1103200A12B5
:1006F8008A110038031D812B822B612B842B842BBC
:100708000800FC01A001A101A201A301A401A50107
:100718000A128A11A4220A128A11A6000A128A1140
:10072800A5220A128A11A7000A128A11A6220A1201
:100738008A11A8000A128A11A7220A128A11A9008E
:100748000A128A11A8220A128A11AA000A128A1108
:10075800A9220A128A11AB0083010A128A11102FEA
:100768007308720471047004031DBB2BBC2BBE2BD1
:10077800E32BE32B0130F4000030F5000030F600E5
:100788000030F7007408F0027508031C750FCD2BB4
:10079800CE2BF1027608031C760FD32BD42BF20252
:1007A8007708031C770FD92BDA2BF302730872042E
:1007B80071047004031DE12BE22BBE2BE32B080010
:1007C8008312031306150030F3000030F2001F30C7
:1007D800F1004030F0000A128A11B4230A128A117B
:1007E8008312031306110030F3000030F200323098
:1007F800F100C830F0000A128A11B4230A128A11D3
:100808008312031306150030F3000030F2001F3086
:10081800F1004030F0000A128A11B4230A128A113A
:1008280083120313061108008312031305181D2CE5
:100838001E2C482C202C202C051C232C242C202C4E
:10084800252CFC08031D292C2A2C2F2C0A128A116E
:10085800DA220A128A117C080A128A1120230A1243
:100868008A112A300A128A1107230A128A11313092
:10087800FB007C08203E84007B0883138000013045
:10088800FB007B08FC07D52C85184B2C4C2C762CB0
:100898004E2C4E2C851C512C522C4E2C532CFC08C3
:1008A800031D572C582C5D2C0A128A11DA220A12C1
:1008B8008A117C080A128A1120230A128A112A3006
:1008C8000A128A1107230A128A113230FB007C08A7
:1008D800203E84007B08831380000130FB007B08E6
:1008E800FC07D52C0519792C7A2CA42C7C2C7C2C73
:1008F800051D7F2C802C7C2C812CFC08031D852C4D
:10090800862C8B2C0A128A11DA220A128A117C0888
:100918000A128A1120230A128A112A300A128A110D
:1009280007230A128A113330FB007C08203E84001A
:100938007B08831380000130FB007B08FC07D52C63
:100948008519A72CA82CD52CAA2CAA2C851DAD2C32
:10095800AE2CAA2CAF2CFC08031DB32CB42CB92C3C
:100968000A128A11DA220A128A117C080A128A11DA
:1009780020230A128A112A300A128A1107230A121E
:100988008A114130FB007C08203E84007B088313D9
:1009980080000130FB007B08FC07D52CD52CD52C1A
:1009A800D52C0800831203130518DB2CDC2C062D2C
:1009B800DE2CDE2C051CE12CE22CDE2CE32CFC08C2
:1009C800031DE72CE82CED2C0A128A11DA220A12F0
:1009D8008A117C080A128A1120230A128A112A30E5
:1009E8000A128A1107230A128A113430FB007C0884
:1009F800203E84007B08831380000130FB007B08C5
:100A0800FC07932D8518092D0A2D342D0C2D0C2D3E
:100A1800851C0F2D102D0C2D112DFC08031D152DD7
:100A2800162D1B2D0A128A11DA220A128A117C0845
:100A38000A128A1120230A128A112A300A128A11EC
:100A480007230A128A113530FB007C08203E8400F7
:100A58007B08831380000130FB007B08FC07932D83
:100A68000519372D382D622D3A2D3A2D051D3D2DAE
:100A78003E2D3A2D3F2DFC08031D432D442D492DB5
:100A88000A128A11DA220A128A117C080A128A11B9
:100A980020230A128A112A300A128A1107230A12FD
:100AA8008A113630FB007C08203E84007B088313C3
:100AB80080000130FB007B08FC07932D8519652D0C
:100AC800662D932D682D682D851D6B2D6C2D682D39
:100AD8006D2DFC08031D712D722D772D0A128A11B8
:100AE800DA220A128A117C080A128A1120230A12B1
:100AF8008A112A300A128A1107230A128A114230EF
:100B0800FB007C08203E84007B08831380000130B2
:100B1800FB007B08FC07932D932D932D932D080044
:100B2800831203130518992D9A2DC42D9C2D9C2DE5
:100B3800051C9F2DA02D9C2DA12DFC08031DA52D66
:100B4800A62DAB2D0A128A11DA220A128A117C0804
:100B58000A128A1120230A128A112A300A128A11CB
:100B680007230A128A113730FB007C08203E8400D4
:100B78007B08831380000130FB007B08FC07512EA3
:100B88008518C72DC82DF22DCA2DCA2D851CCD2D2F
:100B9800CE2DCA2DCF2DFC08031DD32DD42DD92D34
:100BA8000A128A11DA220A128A117C080A128A1198
:100BB80020230A128A112A300A128A1107230A12DC
:100BC8008A113830FB007C08203E84007B088313A0
:100BD80080000130FB007B08FC07512E0519F52D1C
:100BE800F62D202EF82DF82D051DFB2DFC2DF82DAA
:100BF800FD2DFC08031D012E022E072E0A128A1154
:100C0800DA220A128A117C080A128A1120230A128F
:100C18008A112A300A128A1107230A128A113930D6
:100C2800FB007C08203E84007B0883138000013091
:100C3800FB007B08FC07512E8519232E242E512EEC
:100C4800262E262E851D292E2A2E262E2B2EFC08F2
:100C5800031D2F2E302E352E0A128A11DA220A127F
:100C68008A117C080A128A1120230A128A112A3052
:100C78000A128A1107230A128A114330FB007C08E2
:100C8800203E84007B08831380000130FB007B0832
:100C9800FC07512E512E512E512E0800831203139A
:100CA8000518572E582E822E5A2E5A2E051C5D2EA8
:100CB8005E2E5A2E5F2EFC08031D632E642E692EAD
:100CC8000A128A11DA220A128A117C080A128A1177
:100CD80020230A128A112A300A128A1107230A12BB
:100CE8008A112A30FB007C08203E84007B0883138D
:100CF80080000130FB007B08FC070F2F8518852E2C
:100D0800862EB02E882E882E851C8B2E8C2E882E13
:100D18008D2EFC08031D912E922E972E0A128A11F1
:100D2800DA220A128A117C080A128A1120230A126E
:100D38008A112A300A128A1107230A128A113030BE
:100D4800FB007C08203E84007B0883138000013070
:100D5800FB007B08FC070F2F0519B32EB42EDE2EDF
:100D6800B62EB62E051DB92EBA2EB62EBB2EFC08F1
:100D7800031DBF2EC02EC52E0A128A11DA220A12AE
:100D88008A117C080A128A1120230A128A112A3031
:100D98000A128A1107230A128A112330FB007C08E1
:100DA800203E84007B08831380000130FB007B0811
:100DB800FC070F2F8519E12EE22E0F2FE42EE42ECB
:100DC800851DE72EE82EE42EE92EFC08031DED2EE6
:100DD800EE2EF32E0A128A11DA220A128A117C08E0
:100DE8000A128A1120230A128A112A300A128A1139
:100DF80007230A128A114430FB007C08203E840035
:100E08007B08831380000130FB007B08FC070F2F51
:100E18000F2F0F2F0F2F08000630831603139F0084
:100E2800CF30850086018801F03087008901831260
:100E380003138701880186100611871107110930ED
:100E48000A128A11EE220A128A1102300A128A1133
:100E5800EE220A128A1106300A128A11EE220A12AA
:100E68008A110C300A128A11EE220A128A113830BD
:100E78000A128A11EE220A128A110A128A11DA2239
:100E88000A128A110030F3000030F2000330F1003A
:100E9800E830F0000A128A11B4230A128A110030CD
:100EA8000A128A1120230A128A1112300A128A1190
:100EB8005E230A128A1114300A128A1120230A1298
:100EC8008A1101300A128A115E230A128A116C2FC4
:100ED8000A128A11AA220A128A110A128A111824DD
:100EE8000A128A110A128A11B1220A128A110A12E6
:100EF8008A11D6240A128A110A128A11B8220A12F1
:100F08008A110A128A1194250A128A110A128A1160
:100F1800BF220A128A110A128A1152260A128A114B
:100F28007C08063A031D992F9A2F6C2FFC01831217
:100F3800031320082606031DA22FA32FDE2F210846
:100F48002706031DA82FA92FDE2F22082806031D18
:100F5800AE2FAF2FDE2F23082906031DB42FB52F80
:100F6800DE2F24082A06031DBA2FBB2FDE2F2508E3
:100F78002B06031DC02FC12FDE2F0A128A11DA2279
:100F88000A128A1100300A128A1120230A128A11C1
:100F98001F300A128A115E230A128A118312031360
:100FA800871586140A128A11C6220A128A11DC2FA2
:100FB800DC2F6C2F0A128A11DA220A128A110030E9
:100FC8000A128A1120230A128A1128300A128A1159
:100FD8005E230A128A118312031307150A128A1153
:100FE800E4230A128A11F82FF82F6C2F6C2F6C2F1C
:080FF8006C2F0A128A11002877
:02400E00323F3F
:00000001FF
