:100000000A128A11872B00308A000408840A8207AA
:10001000003436342D34443449344734493454346C
:100020002034503441345334533457344F345234E1
:100030004434003450344C34453441345334453422
:10004000203445344E34543445345234003453341F
:100050005534433443344534533453342134003419
:0E0060004534523452344F345234213400347B
:10054C003134323433343434353436348312031387
:10055C0089140914851605120800831203138914D3
:10056C000914851205160800831203138914091047
:10057C0085160516080083120313891009148516B5
:10058C00051608008312031306150030F300003023
:10059C00F2001F30F1004030F0000A128A11B6232D
:1005AC000A128A11831203130611080001300A1271
:1005BC008A1109230A128A110030F3000030F2006C
:1005CC000030F1003230F0000A128A11B6230A1200
:1005DC008A110800F80083120313071478088800A6
:1005EC000030F3000030F2000030F1003230F00047
:1005FC000A128A11B6230A128A110A128A113F238F
:10060C000A128A110800F8008312031307107808E5
:10061C0088000030F3000030F2000030F10032307E
:10062C00F0000A128A11B6230A128A110A128A11D0
:10063C003F230A128A110800FA0010307A020318BC
:10064C00282B292B312B7A08803E0A128A11092378
:10065C000A128A113E2B7A08EC3EF9007908FA004E
:10066C007A08C03E0A128A1109230A128A113E2BFB
:10067C0008008312031387140030F3000030F200DB
:10068C000030F1003230F0000A128A11B6230A123F
:10069C008A118312031387100030F3000030F2002C
:1006AC000030F1003230F0000A128A11B6230A121F
:1006BC008A110800FB00FA01742B7B0884000A12D3
:1006CC008A1103200A128A110A128A11F0220A12C4
:1006DC008A110130F9007908FB07742B7B08031D84
:1006EC00782B862B7B0884000A128A1103200A12AD
:1006FC008A110038031D832B842B632B862B862BAE
:10070C000800FC01A001A101A201A301A401A50103
:10071C000A128A11A6220A128A11A6000A128A113A
:10072C00A7220A128A11A7000A128A11A8220A12F9
:10073C008A11A8000A128A11A9220A128A11A90088
:10074C000A128A11AA220A128A11AA000A128A1102
:10075C00AB220A128A11AB0083010A128A11122FE2
:10076C007308720471047004031DBD2BBE2BC02BC7
:10077C00E52BE52B0130F4000030F5000030F600DD
:10078C000030F7007408F0027508031C750FCF2BAE
:10079C00D02BF1027608031C760FD52BD62BF20248
:1007AC007708031C770FDB2BDC2BF3027308720426
:1007BC0071047004031DE32BE42BC02BE52B080004
:1007CC008312031306150030F3000030F2001F30C3
:1007DC00F1004030F0000A128A11B6230A128A1175
:1007EC008312031306110030F3000030F200323094
:1007FC00F100C830F0000A128A11B6230A128A11CD
:10080C008312031306150030F3000030F2001F3082
:10081C00F1004030F0000A128A11B6230A128A1134
:10082C0083120313061108008312031305181F2CDF
:10083C00202C4A2C222C222C051C252C262C222C3C
:10084C00272CFC08031D2B2C2C2C312C0A128A1162
:10085C00DC220A128A117C080A128A1122230A123B
:10086C008A112A300A128A11F0220A128A112A30AD
:10087C00FB007C08203E84007B0883138000013041
:10088C00FB007B08FC07D72C85184D2C4E2C782CA4
:10089C00502C502C851C532C542C502C552CFC08B3
:1008AC00031D592C5A2C5F2C0A128A11DC220A12B5
:1008BC008A117C080A128A1122230A128A112A3000
:1008CC000A128A11F0220A128A113030FB007C08BD
:1008DC00203E84007B08831380000130FB007B08E2
:1008EC00FC07D72C05197B2C7C2CA62C7E2C7E2C63
:1008FC00051D812C822C7E2C832CFC08031D872C3F
:10090C00882C8D2C0A128A11DC220A128A117C087E
:10091C000A128A1122230A128A112A300A128A1107
:10092C00F0220A128A112330FB007C08203E84003E
:10093C007B08831380000130FB007B08FC07D72C5D
:10094C008519A92CAA2CD72CAC2CAC2C851DAF2C22
:10095C00B02CAC2CB12CFC08031DB52CB62CBB2C2C
:10096C000A128A11DC220A128A117C080A128A11D4
:10097C0022230A128A112A300A128A11F0220A1230
:10098C008A114430FB007C08203E84007B088313D2
:10099C0080000130FB007B08FC07D72CD72CD72C10
:1009AC00D72C0800831203130518DD2CDE2C082D20
:1009BC00E02CE02C051CE32CE42CE02CE52CFC08B2
:1009CC00031DE92CEA2CEF2C0A128A11DC220A12E4
:1009DC008A117C080A128A1122230A128A112A30DF
:1009EC000A128A11F0220A128A113730FB007C0895
:1009FC00203E84007B08831380000130FB007B08C1
:100A0C00FC07952D85180B2D0C2D362D0E2D0E2D2E
:100A1C00851C112D122D0E2D132DFC08031D172DC9
:100A2C00182D1D2D0A128A11DC220A128A117C083B
:100A3C000A128A1122230A128A112A300A128A11E6
:100A4C00F0220A128A113830FB007C08203E840008
:100A5C007B08831380000130FB007B08FC07952D7D
:100A6C000519392D3A2D642D3C2D3C2D051D3F2D9E
:100A7C00402D3C2D412DFC08031D452D462D4B2DA5
:100A8C000A128A11DC220A128A117C080A128A11B3
:100A9C0022230A128A112A300A128A11F0220A120F
:100AAC008A113930FB007C08203E84007B088313BC
:100ABC0080000130FB007B08FC07952D8519672D04
:100ACC00682D952D6A2D6A2D851D6D2D6E2D6A2D27
:100ADC006F2DFC08031D732D742D792D0A128A11AC
:100AEC00DC220A128A117C080A128A1122230A12A9
:100AFC008A112A300A128A11F0220A128A11433002
:100B0C00FB007C08203E84007B08831380000130AE
:100B1C00FB007B08FC07952D952D952D952D080038
:100B2C008312031305189B2D9C2DC62D9E2D9E2DD7
:100B3C00051CA12DA22D9E2DA32DFC08031DA72D58
:100B4C00A82DAD2D0A128A11DC220A128A117C08FA
:100B5C000A128A1122230A128A112A300A128A11C5
:100B6C00F0220A128A113430FB007C08203E8400EB
:100B7C007B08831380000130FB007B08FC07532E9D
:100B8C008518C92DCA2DF42DCC2DCC2D851CCF2D1F
:100B9C00D02DCC2DD12DFC08031DD52DD62DDB2D24
:100BAC000A128A11DC220A128A117C080A128A1192
:100BBC0022230A128A112A300A128A11F0220A12EE
:100BCC008A113530FB007C08203E84007B0883139F
:100BDC0080000130FB007B08FC07532E0519F72D14
:100BEC00F82D222EFA2DFA2D051DFD2DFE2DFA2D98
:100BFC00FF2DFC08031D032E042E092E0A128A1148
:100C0C00DC220A128A117C080A128A1122230A1287
:100C1C008A112A300A128A11F0220A128A113630ED
:100C2C00FB007C08203E84007B088313800001308D
:100C3C00FB007B08FC07532E8519252E262E532EE0
:100C4C00282E282E851D2B2E2C2E282E2D2EFC08E2
:100C5C00031D312E322E372E0A128A11DC220A1273
:100C6C008A117C080A128A1122230A128A112A304C
:100C7C000A128A11F0220A128A114230FB007C08F7
:100C8C00203E84007B08831380000130FB007B082E
:100C9C00FC07532E532E532E532E0800831203138E
:100CAC000518592E5A2E842E5C2E5C2E051C5F2E98
:100CBC00602E5C2E612EFC08031D652E662E6B2E9D
:100CCC000A128A11DC220A128A117C080A128A1171
:100CDC0022230A128A112A300A128A11F0220A12CD
:100CEC008A113130FB007C08203E84007B08831382
:100CFC0080000130FB007B08FC07112F8518872E24
:100D0C00882EB22E8A2E8A2E851C8D2E8E2E8A2E01
:100D1C008F2EFC08031D932E942E992E0A128A11E5
:100D2C00DC220A128A117C080A128A1122230A1266
:100D3C008A112A300A128A11F0220A128A113230D0
:100D4C00FB007C08203E84007B088313800001306C
:100D5C00FB007B08FC07112F0519B52EB62EE02ED3
:100D6C00B82EB82E051DBB2EBC2EB82EBD2EFC08E1
:100D7C00031DC12EC22EC72E0A128A11DC220A12A2
:100D8C008A117C080A128A1122230A128A112A302B
:100D9C000A128A11F0220A128A113330FB007C08E5
:100DAC00203E84007B08831380000130FB007B080D
:100DBC00FC07112F8519E32EE42E112FE62EE62EBB
:100DCC00851DE92EEA2EE62EEB2EFC08031DEF2ED8
:100DDC00F02EF52E0A128A11DC220A128A117C08D6
:100DEC000A128A1122230A128A112A300A128A1133
:100DFC00F0220A128A114130FB007C08203E84004C
:100E0C007B08831380000130FB007B08FC07112F4B
:100E1C00112F112F112F08000630831603139F007A
:100E2C00CF30850086018801F0308700890183125C
:100E3C0003138701880186100611071187110930E9
:100E4C000A128A1109230A128A1102300A128A1113
:100E5C0009230A128A1106300A128A1109230A126E
:100E6C008A110C300A128A1109230A128A1138309D
:100E7C000A128A1109230A128A110A128A11DC2217
:100E8C000A128A110030F3000030F2000330F10036
:100E9C00E830F0000A128A11B6230A128A110030C7
:100EAC000A128A1122230A128A1112300A128A118A
:100EBC0060230A128A1114300A128A1122230A1290
:100ECC008A1101300A128A1160230A128A116E2FBC
:100EDC000A128A11C1220A128A110A128A11542684
:100EEC000A128A110A128A11BA220A128A110A12D9
:100EFC008A1196250A128A110A128A11B3220A1231
:100F0C008A110A128A11D8240A128A110A128A1119
:100F1C00AC220A128A110A128A111A240A128A1194
:100F2C007C08063A031D9B2F9C2F6E2FFC0183120D
:100F3C00031320082606031DA42FA52FDF2F21083D
:100F4C002706031DAA2FAB2FDF2F22082806031D0F
:100F5C00B02FB12FDF2F23082906031DB62FB72F73
:100F6C00DF2F24082A06031DBC2FBD2FDF2F2508D9
:100F7C002B06031DC22FC32FDF2F0A128A11DC226E
:100F8C000A128A1100300A128A1122230A128A11BB
:100F9C001F300A128A1160230A128A11831203135A
:100FAC00071586140A128A11C8220A128A11DD2F1B
:100FBC006E2F0A128A11DC220A128A1100300A12D0
:100FCC008A1122230A128A1128300A128A116023EC
:100FDC000A128A118312031387150A128A11E62347
:100FEC000A128A11F82F6E2F6E2F6E2F6E2F0A1287
:040FFC008A1100282E
:02400E00323F3F
:00000001FF
