:10000000643084000730FE003D30FF001120800086
:10001000840A04086A3A03191528FF0A0319FE0A1C
:1000200006287E088A007F0882006A3084007030CB
:100030000A128A112A200A128A1183177D3084003D
:100040007E300A128A112A200A128A1183010A12AA
:100050008A11322864008001840A040603190034DE
:1000600004062B280630831603139F00CF3085002B
:10007000031000300318013086000310003003180D
:1000800001308800F0308700031000300318013081
:100090008900031083120313003003180130870016
:1000A0000310003003180130880086100611071174
:1000B000871109300A128A11B5230A128A110230F7
:1000C0000A128A11B5230A128A1106300A128A11FD
:1000D000B5230A128A110C300A128A11B5230A12AA
:1000E0008A1138300A128A11B5230A128A110A12AB
:1000F0008A11EA270A128A110030F7000030F60050
:100100000330F500E830F4000A128A1175270A124C
:100110008A1100300A128A11CE230A128A11123073
:100120000A128A11A3270A128A1114300A128A119C
:10013000CE230A128A1101300A128A11A3270A1249
:100140008A110A128A116E230A128A110A128A115E
:100150003A260A128A110A128A1175230A128A1182
:100160000A128A11E8230A128A110A128A117C23C0
:100170000A128A110A128A11AE240A128A110A126C
:100180008A1183230A128A110A128A1174250A120B
:100190008A11831203137D08063A031DD028D12843
:1001A00030290310003003180130FD006A08831362
:1001B0006406031DDC28DD2816296B086506031D6F
:1001C000E228E32816296C086606031DE828E928BA
:1001D00016296D086706031DEE28EF2816296E08FC
:1001E0006806031DF428F52816296F086906031D03
:1001F000FA28FB2816290A128A11EA270A128A11FC
:1002000000300A128A11CE230A128A111F300A12F4
:100210008A11A3270A128A11831203130715861461
:100220000A128A118A230A128A1115290A128A11BE
:10023000EA270A128A1100300A128A11CE230A1202
:100240008A1128300A128A11A3270A128A118312EE
:10025000031387150A128A1143270A128A112F29BC
:08026000A1280A128A110028EE
:1006DC00831203138910091485160516080083125A
:1006EC0003138914091085160516080083120313C9
:1006FC008914091485120516080083120313891432
:10070C00091485160512080006150030F700003094
:10071C00F6001F30F5004030F4000A128A117527DC
:10072C000A128A118312031306110800F3008312B4
:10073C0003130714730888000030F7000030F6002C
:10074C000030F5003230F4000A128A1175270A12B3
:10075C008A110A128A11C9270A128A110800F2009A
:10076C00831203130710720888000030F700003062
:10077C00F6000030F5003230F4000A128A117527A9
:10078C000A128A110A128A11C9270A128A11080040
:10079C00F100103071020318D42BD52BDD2B71080E
:1007AC00803E0A128A11B5230A128A11E72B7108AE
:1007BC00EC3EF1007108C03E0A128A11B5230A12F0
:1007CC008A110800831203130518ED2BEE2B1B2C3A
:1007DC00F02BF02B051CF32BF42BEF2BFD08031D3A
:1007EC00F82BF92BFE2B0A128A11EA270A128A110E
:1007FC00831203137D080A128A11CE230A128A115E
:10080C002A300A128A119C230A128A113430F00001
:10081C00831203137D086A3E8400831370088000E2
:10082C000130F0007008FD07AD2C85181E2C1F2C14
:10083C004C2C212C212C851C242C252C202CFD0807
:10084C00031D292C2A2C2F2C0A128A11EA270A1292
:10085C008A11831203137D080A128A11CE230A12FD
:10086C008A112A300A128A119C230A128A113530F5
:10087C00F000831203137D086A3E84008313700812
:10088C0080000130F0007008FD07AD2C05194F2CCD
:10089C00502C7D2C522C522C051D552C562C512C89
:1008AC00FD08031D5A2C5B2C602C0A128A11EA27B6
:1008BC000A128A11831203137D080A128A11CE239D
:1008CC000A128A112A300A128A119C230A128A11DE
:1008DC003630F000831203137D086A3E84008313C4
:1008EC00700880000130F0007008FD07AD2C8519F0
:1008FC00802C812CAD2C832C832C851D862C872C55
:10090C00822CFD08031D8B2C8C2C912C0A128A1125
:10091C00EA270A128A11831203137D080A128A111C
:10092C00CE230A128A112A300A128A119C230A1227
:10093C008A114230F000831203137D086A3E840052
:10094C008313700880000130F0007008FD07080068
:10095C00831203130518B32CB42CE12CB62CB62C33
:10096C00051CB92CBA2CB52CFD08031DBE2CBF2CB4
:10097C00C42C0A128A11EA270A128A118312031351
:10098C007D080A128A11CE230A128A112A300A1201
:10099C008A119C230A128A113730F0008312031338
:1009AC007D086A3E84008313700880000130F000DB
:1009BC007008FD07732D8518E42CE52C122DE72CFF
:1009CC00E72C851CEA2CEB2CE62CFD08031DEF2CE8
:1009DC00F02CF52C0A128A11EA270A128A118312BA
:1009EC0003137D080A128A11CE230A128A112A30A7
:1009FC000A128A119C230A128A113830F0008312D1
:100A0C0003137D086A3E8400831370088000013054
:100A1C00F0007008FD07732D0519152D162D432DAB
:100A2C00182D182D051D1B2D1C2D172DFD08031D14
:100A3C00202D212D262D0A128A11EA270A128A113D
:100A4C00831203137D080A128A11CE230A128A110B
:100A5C002A300A128A119C230A128A113930F000AA
:100A6C00831203137D086A3E840083137008800090
:100A7C000130F0007008FD07732D8519462D472DA8
:100A8C00732D492D492D851D4C2D4D2D482DFD08BF
:100A9C00031D512D522D572D0A128A11EA270A12C5
:100AAC008A11831203137D080A128A11CE230A12AB
:100ABC008A112A300A128A119C230A128A11433095
:100ACC00F000831203137D086A3E840083137008C0
:100ADC0080000130F0007008FD070800831203133A
:100AEC000518792D7A2DA72D7C2D7C2D051C7F2D9D
:100AFC00802D7B2DFD08031D842D852D8A2D0A123A
:100B0C008A11EA270A128A11831203137D080A122A
:100B1C008A11CE230A128A112A300A128A119C23B6
:100B2C000A128A112A30F000831203137D086A3EE0
:100B3C0084008313700880000130F0007008FD07FA
:100B4C00392E8518AA2DAB2DD82DAD2DAD2D851C8C
:100B5C00B02DB12DAC2DFD08031DB52DB62DBB2D23
:100B6C000A128A11EA270A128A11831203137D08CA
:100B7C000A128A11CE230A128A112A300A128A11F9
:100B8C009C230A128A113030F000831203137D0863
:100B9C006A3E84008313700880000130F0007008F6
:100BAC00FD07392E0519DB2DDC2D092EDE2DDE2D52
:100BBC00051DE12DE22DDD2DFD08031DE62DE72D94
:100BCC00EC2D0A128A11EA270A128A1183120313D6
:100BDC007D080A128A11CE230A128A112A300A12AF
:100BEC008A119C230A128A112330F00083120313FA
:100BFC007D086A3E84008313700880000130F00089
:100C0C007008FD07392E85190C2E0D2E392E0F2E3E
:100C1C000F2E851D122E132E0E2EFD08031D172EC2
:100C2C00182E1D2E0A128A11EA270A128A11831213
:100C3C0003137D080A128A11CE230A128A112A3054
:100C4C000A128A119C230A128A114430F000831272
:100C5C0003137D086A3E8400831370088000013002
:100C6C00F0007008FD0708008312031305183F2ECF
:100C7C00402E6D2E422E422E051C452E462E412E08
:100C8C00FD08031D4A2E4B2E502E0A128A11EA27FC
:100C9C000A128A11831203137D080A128A11CE23B9
:100CAC000A128A112A300A128A119C230A128A11FA
:100CBC003130F000831203137D086A3E84008313E5
:100CCC00700880000130F0007008FD07FF2E8518B9
:100CDC00702E712E9E2E732E732E851C762E772ED3
:100CEC00722EFD08031D7B2E7C2E812E0A128A117A
:100CFC00EA270A128A11831203137D080A128A1139
:100D0C00CE230A128A112A300A128A119C230A1243
:100D1C008A113230F000831203137D086A3E84007E
:100D2C008313700880000130F0007008FD07FF2E5F
:100D3C000519A12EA22ECF2EA42EA42E051DA72E52
:100D4C00A82EA32EFD08031DAC2EAD2EB22E0A121A
:100D5C008A11EA270A128A11831203137D080A12D8
:100D6C008A11CE230A128A112A300A128A119C2364
:100D7C000A128A113330F000831203137D086A3E85
:100D8C0084008313700880000130F0007008FD07A8
:100D9C00FF2E8519D22ED32EFF2ED52ED52E851DA6
:100DAC00D82ED92ED42EFD08031DDD2EDE2EE32EDB
:100DBC000A128A11EA270A128A11831203137D0878
:100DCC000A128A11CE230A128A112A300A128A11A7
:100DDC009C230A128A114130F000831203137D0800
:100DEC006A3E84008313700880000130F0007008A4
:100DFC00FD070800FE00FE1F082F83137E188317C3
:100E0C00000808000408FE0007308A007E088207EC
:100E1C00003436342D344434493447344934543452
:100E2C002034503441345334533457344F345234C7
:100E3C004434003450344C34453441345334453408
:100E4C00203445344E345434453452340034533405
:100E5C0055344334433445345334533421340034FF
:100E6C004534523452344F345234213400343134FA
:100E7C003234333434343534363406150030F7001C
:100E8C000030F6001F30F5004030F4000A128A11D1
:100E9C0075270A128A118312031306110030F7000A
:100EAC000030F6003230F500C830F4000A128A1116
:100EBC0075270A128A118312031306150030F700E6
:100ECC000030F6001F30F5004030F4000A128A1191
:100EDC0075270A128A11831203130611080077086A
:100EEC00760475047404031D7C2F7D2F7E2FA22F96
:100EFC000130F8000030F9000030FA000030FB003F
:100F0C007808F4027908031C790F8D2F8E2FF502C7
:100F1C007A08031C7A0F932F942FF6027B08031C7C
:100F2C007B0F992F9A2FF7027708760475047404B7
:100F3C00031DA12FA22F7E2F0800F10003100030FB
:100F4C0003180130F000B92F71080A128A11092711
:100F5C000A128A110A128A119C230A128A11013070
:100F6C00F2007208F107F108031DBD2FC82F71089C
:100F7C000A128A1109270A128A110038031DC72F79
:100F8C00C82FAA2F08008312031387140030F70010
:100F9C000030F6000030F5003230F4000A128A11ED
:100FAC0075270A128A118312031387100030F70079
:100FBC000030F6000030F5003230F4000A128A11CD
:100FCC0075270A128A11080001300A128A11B523FA
:100FDC000A128A110030F7000030F6000030F500DC
:100FEC003230F4000A128A1175270A128A1108008D
:02400E00323F3F
:00000001FF
